{
    "_format": "hh-sol-artifact-1",
    "contractName": "FluxLayerZeroOracle",
    "sourceName": "contracts/FluxLayerZeroOracle.sol",
    "abi": [
        {
            "inputs": [
                {
                    "internalType": "address",
                    "name": "_admin",
                    "type": "address"
                },
                {
                    "internalType": "address",
                    "name": "_layerZero",
                    "type": "address"
                }
            ],
            "stateMutability": "nonpayable",
            "type": "constructor"
        },
        {
            "anonymous": false,
            "inputs": [
                {
                    "indexed": false,
                    "internalType": "bytes",
                    "name": "dstNetworkAddress",
                    "type": "bytes"
                },
                {
                    "indexed": false,
                    "internalType": "uint16",
                    "name": "_srcChainId",
                    "type": "uint16"
                },
                {
                    "indexed": false,
                    "internalType": "bytes",
                    "name": "_blockHash",
                    "type": "bytes"
                },
                {
                    "indexed": false,
                    "internalType": "uint256",
                    "name": "_confirmations",
                    "type": "uint256"
                },
                {
                    "indexed": false,
                    "internalType": "bytes",
                    "name": "_data",
                    "type": "bytes"
                }
            ],
            "name": "Notified",
            "type": "event"
        },
        {
            "anonymous": false,
            "inputs": [
                {
                    "indexed": false,
                    "internalType": "uint16",
                    "name": "chainId",
                    "type": "uint16"
                },
                {
                    "indexed": false,
                    "internalType": "bytes",
                    "name": "layerZeroContract",
                    "type": "bytes"
                },
                {
                    "indexed": false,
                    "internalType": "uint256",
                    "name": "requiredBlockConfirmations",
                    "type": "uint256"
                },
                {
                    "indexed": false,
                    "internalType": "uint256",
                    "name": "requestedAtBlock",
                    "type": "uint256"
                }
            ],
            "name": "NotifyOracleOfBlock",
            "type": "event"
        },
        {
            "anonymous": false,
            "inputs": [
                {
                    "indexed": true,
                    "internalType": "bytes32",
                    "name": "role",
                    "type": "bytes32"
                },
                {
                    "indexed": true,
                    "internalType": "bytes32",
                    "name": "previousAdminRole",
                    "type": "bytes32"
                },
                {
                    "indexed": true,
                    "internalType": "bytes32",
                    "name": "newAdminRole",
                    "type": "bytes32"
                }
            ],
            "name": "RoleAdminChanged",
            "type": "event"
        },
        {
            "anonymous": false,
            "inputs": [
                {
                    "indexed": true,
                    "internalType": "bytes32",
                    "name": "role",
                    "type": "bytes32"
                },
                {
                    "indexed": true,
                    "internalType": "address",
                    "name": "account",
                    "type": "address"
                },
                {
                    "indexed": true,
                    "internalType": "address",
                    "name": "sender",
                    "type": "address"
                }
            ],
            "name": "RoleGranted",
            "type": "event"
        },
        {
            "anonymous": false,
            "inputs": [
                {
                    "indexed": true,
                    "internalType": "bytes32",
                    "name": "role",
                    "type": "bytes32"
                },
                {
                    "indexed": true,
                    "internalType": "address",
                    "name": "account",
                    "type": "address"
                },
                {
                    "indexed": true,
                    "internalType": "address",
                    "name": "sender",
                    "type": "address"
                }
            ],
            "name": "RoleRevoked",
            "type": "event"
        },
        {
            "anonymous": false,
            "inputs": [
                {
                    "indexed": false,
                    "internalType": "address",
                    "name": "to",
                    "type": "address"
                },
                {
                    "indexed": false,
                    "internalType": "uint256",
                    "name": "amount",
                    "type": "uint256"
                }
            ],
            "name": "Withdraw",
            "type": "event"
        },
        {
            "anonymous": false,
            "inputs": [
                {
                    "indexed": false,
                    "internalType": "address",
                    "name": "token",
                    "type": "address"
                },
                {
                    "indexed": false,
                    "internalType": "address",
                    "name": "to",
                    "type": "address"
                },
                {
                    "indexed": false,
                    "internalType": "uint256",
                    "name": "amount",
                    "type": "uint256"
                }
            ],
            "name": "WithdrawTokens",
            "type": "event"
        },
        {
            "stateMutability": "payable",
            "type": "fallback"
        },
        {
            "inputs": [],
            "name": "ADMIN_ROLE",
            "outputs": [
                {
                    "internalType": "bytes32",
                    "name": "",
                    "type": "bytes32"
                }
            ],
            "stateMutability": "view",
            "type": "function"
        },
        {
            "inputs": [],
            "name": "DEFAULT_ADMIN_ROLE",
            "outputs": [
                {
                    "internalType": "bytes32",
                    "name": "",
                    "type": "bytes32"
                }
            ],
            "stateMutability": "view",
            "type": "function"
        },
        {
            "inputs": [],
            "name": "LAYERZERO_ROLE",
            "outputs": [
                {
                    "internalType": "bytes32",
                    "name": "",
                    "type": "bytes32"
                }
            ],
            "stateMutability": "view",
            "type": "function"
        },
        {
            "inputs": [
                {
                    "internalType": "address",
                    "name": "_token",
                    "type": "address"
                },
                {
                    "internalType": "address",
                    "name": "_spender",
                    "type": "address"
                },
                {
                    "internalType": "uint256",
                    "name": "_amount",
                    "type": "uint256"
                }
            ],
            "name": "approveToken",
            "outputs": [],
            "stateMutability": "nonpayable",
            "type": "function"
        },
        {
            "inputs": [
                {
                    "internalType": "uint16",
                    "name": "",
                    "type": "uint16"
                }
            ],
            "name": "chainPriceLookup",
            "outputs": [
                {
                    "internalType": "uint256",
                    "name": "",
                    "type": "uint256"
                }
            ],
            "stateMutability": "view",
            "type": "function"
        },
        {
            "inputs": [
                {
                    "internalType": "uint16",
                    "name": "dstChainId",
                    "type": "uint16"
                }
            ],
            "name": "getPrice",
            "outputs": [
                {
                    "internalType": "uint256",
                    "name": "priceInWei",
                    "type": "uint256"
                }
            ],
            "stateMutability": "view",
            "type": "function"
        },
        {
            "inputs": [
                {
                    "internalType": "bytes32",
                    "name": "role",
                    "type": "bytes32"
                }
            ],
            "name": "getRoleAdmin",
            "outputs": [
                {
                    "internalType": "bytes32",
                    "name": "",
                    "type": "bytes32"
                }
            ],
            "stateMutability": "view",
            "type": "function"
        },
        {
            "inputs": [
                {
                    "internalType": "bytes32",
                    "name": "role",
                    "type": "bytes32"
                },
                {
                    "internalType": "address",
                    "name": "account",
                    "type": "address"
                }
            ],
            "name": "grantRole",
            "outputs": [],
            "stateMutability": "nonpayable",
            "type": "function"
        },
        {
            "inputs": [
                {
                    "internalType": "bytes32",
                    "name": "role",
                    "type": "bytes32"
                },
                {
                    "internalType": "address",
                    "name": "account",
                    "type": "address"
                }
            ],
            "name": "hasRole",
            "outputs": [
                {
                    "internalType": "bool",
                    "name": "",
                    "type": "bool"
                }
            ],
            "stateMutability": "view",
            "type": "function"
        },
        {
            "inputs": [
                {
                    "internalType": "address",
                    "name": "oracleAddress",
                    "type": "address"
                }
            ],
            "name": "isApproved",
            "outputs": [
                {
                    "internalType": "bool",
                    "name": "approved",
                    "type": "bool"
                }
            ],
            "stateMutability": "view",
            "type": "function"
        },
        {
            "inputs": [
                {
                    "internalType": "uint16",
                    "name": "dstChainId",
                    "type": "uint16"
                },
                {
                    "internalType": "bytes",
                    "name": "dstNetworkAddress",
                    "type": "bytes"
                },
                {
                    "internalType": "uint256",
                    "name": "blockConfirmations",
                    "type": "uint256"
                }
            ],
            "name": "notifyOracleOfBlock",
            "outputs": [],
            "stateMutability": "nonpayable",
            "type": "function"
        },
        {
            "inputs": [
                {
                    "internalType": "bytes",
                    "name": "dstNetworkAddress",
                    "type": "bytes"
                },
                {
                    "internalType": "uint16",
                    "name": "_srcChainId",
                    "type": "uint16"
                },
                {
                    "internalType": "bytes",
                    "name": "_blockHash",
                    "type": "bytes"
                },
                {
                    "internalType": "uint256",
                    "name": "_confirmations",
                    "type": "uint256"
                },
                {
                    "internalType": "bytes",
                    "name": "_data",
                    "type": "bytes"
                }
            ],
            "name": "proceedUpdateBlockHeader",
            "outputs": [],
            "stateMutability": "nonpayable",
            "type": "function"
        },
        {
            "inputs": [
                {
                    "internalType": "bytes32",
                    "name": "role",
                    "type": "bytes32"
                },
                {
                    "internalType": "address",
                    "name": "account",
                    "type": "address"
                }
            ],
            "name": "renounceRole",
            "outputs": [],
            "stateMutability": "nonpayable",
            "type": "function"
        },
        {
            "inputs": [
                {
                    "internalType": "bytes32",
                    "name": "role",
                    "type": "bytes32"
                },
                {
                    "internalType": "address",
                    "name": "account",
                    "type": "address"
                }
            ],
            "name": "revokeRole",
            "outputs": [],
            "stateMutability": "nonpayable",
            "type": "function"
        },
        {
            "inputs": [
                {
                    "internalType": "uint16",
                    "name": "_destinationChainId",
                    "type": "uint16"
                },
                {
                    "internalType": "uint256",
                    "name": "price",
                    "type": "uint256"
                }
            ],
            "name": "setPrice",
            "outputs": [],
            "stateMutability": "nonpayable",
            "type": "function"
        },
        {
            "inputs": [
                {
                    "internalType": "bytes4",
                    "name": "interfaceId",
                    "type": "bytes4"
                }
            ],
            "name": "supportsInterface",
            "outputs": [
                {
                    "internalType": "bool",
                    "name": "",
                    "type": "bool"
                }
            ],
            "stateMutability": "view",
            "type": "function"
        },
        {
            "inputs": [
                {
                    "internalType": "address payable",
                    "name": "_to",
                    "type": "address"
                },
                {
                    "internalType": "uint256",
                    "name": "_amount",
                    "type": "uint256"
                }
            ],
            "name": "withdraw",
            "outputs": [],
            "stateMutability": "nonpayable",
            "type": "function"
        },
        {
            "inputs": [
                {
                    "internalType": "address",
                    "name": "_token",
                    "type": "address"
                },
                {
                    "internalType": "address",
                    "name": "_to",
                    "type": "address"
                },
                {
                    "internalType": "uint256",
                    "name": "_amount",
                    "type": "uint256"
                }
            ],
            "name": "withdrawTokens",
            "outputs": [],
            "stateMutability": "nonpayable",
            "type": "function"
        },
        {
            "stateMutability": "payable",
            "type": "receive"
        }
    ],
    "bytecode": "0x60806040523480156200001157600080fd5b50604051620018b5380380620018b5833981016040819052620000349162000165565b60018055620000647fa49807205ce4d355092ef5a8a18f56e8913cf4a201fbe287825b095693c217758362000098565b620000907f4ecd63424fb78229a43cc7c124d427932819e322b97e5247ca85f7361247f8b38262000098565b50506200019d565b620000a48282620000a8565b5050565b6000828152602081815260408083206001600160a01b038516845290915290205460ff16620000a4576000828152602081815260408083206001600160a01b03851684529091529020805460ff19166001179055620001043390565b6001600160a01b0316816001600160a01b0316837f2f8788117e7eff1d82e926ec794901d17c78024a50270940304540a733656f0d60405160405180910390a45050565b80516001600160a01b03811681146200016057600080fd5b919050565b600080604083850312156200017957600080fd5b620001848362000148565b9150620001946020840162000148565b90509250929050565b61170880620001ad6000396000f3fe60806040526004361061011b5760003560e01c806385dd5b661161009c578063bbc2986c1161006e578063da3e339711610056578063da3e339714610385578063e0ad121a146103a5578063f3fef3a3146103d657005b8063bbc2986c14610345578063d547741f1461036557005b806385dd5b661461029f5780638be3b12d146102bf57806391d14854146102ec578063a217fddf1461033057005b806336568abe116100ed578063673448dd116100d5578063673448dd14610217578063716db9541461023757806375b238fc1461026b57005b806336568abe146101d75780635e35359e146101f757005b806301ffc9a714610124578063248a9ca3146101595780632acb26b0146101975780632f2ff15d146101b757005b3661012257005b005b34801561013057600080fd5b5061014461013f36600461116d565b6103f6565b60405190151581526020015b60405180910390f35b34801561016557600080fd5b50610189610174366004611197565b60009081526020819052604090206001015490565b604051908152602001610150565b3480156101a357600080fd5b506101226101b2366004611210565b61042d565b3480156101c357600080fd5b506101226101d2366004611282565b610472565b3480156101e357600080fd5b506101226101f2366004611282565b61049d565b34801561020357600080fd5b506101226102123660046112b2565b61052e565b34801561022357600080fd5b506101446102323660046112f3565b6105fd565b34801561024357600080fd5b506101897f4ecd63424fb78229a43cc7c124d427932819e322b97e5247ca85f7361247f8b381565b34801561027757600080fd5b506101897fa49807205ce4d355092ef5a8a18f56e8913cf4a201fbe287825b095693c2177581565b3480156102ab57600080fd5b506101226102ba366004611310565b61063d565b3480156102cb57600080fd5b506101896102da3660046113c7565b60026020526000908152604090205481565b3480156102f857600080fd5b50610144610307366004611282565b6000918252602082815260408084206001600160a01b0393909316845291905290205460ff1690565b34801561033c57600080fd5b50610189600081565b34801561035157600080fd5b506101226103603660046113e2565b610734565b34801561037157600080fd5b50610122610380366004611282565b6107b6565b34801561039157600080fd5b506101226103a03660046112b2565b6107dc565b3480156103b157600080fd5b506101896103c03660046113c7565b61ffff1660009081526002602052604090205490565b3480156103e257600080fd5b506101226103f136600461140c565b610862565b60006001600160e01b03198216637965db0b60e01b148061042757506301ffc9a760e01b6001600160e01b03198316145b92915050565b7f921418dbbe8ff71a5e20b85f7fbdce9ceead290b7185b187cc4868c7905835358484848443604051610464959493929190611453565b60405180910390a150505050565b60008281526020819052604090206001015461048e8133610a13565b6104988383610a91565b505050565b6001600160a01b03811633146105205760405162461bcd60e51b815260206004820152602f60248201527f416363657373436f6e74726f6c3a2063616e206f6e6c792072656e6f756e636560448201527f20726f6c657320666f722073656c66000000000000000000000000000000000060648201526084015b60405180910390fd5b61052a8282610b2f565b5050565b3360009081527f7d7ffb7a348e1c6a02869081a26547b49160dd3df72d1d75a570eb9b698292ec602052604090205460ff166105995760405162461bcd60e51b815260206004820152600a60248201526941646d696e206f6e6c7960b01b6044820152606401610517565b6105ad6001600160a01b0384168383610bae565b604080516001600160a01b038086168252841660208201529081018290527f70082d08c003c5341f2401bec1c2ae1dbcdc29ae17e9cc5633fa617caa8acd4c9060600160405180910390a1505050565b6001600160a01b03811660009081527f7d7ffb7a348e1c6a02869081a26547b49160dd3df72d1d75a570eb9b698292ec602052604081205460ff16610427565b61067c88888080601f016020809104026020016040519081016040528093929190818152602001838380828437600092019190915250610c2692505050565b6001600160a01b03166351e96abe873088888888886040518863ffffffff1660e01b81526004016106b39796959493929190611485565b600060405180830381600087803b1580156106cd57600080fd5b505af11580156106e1573d6000803e3d6000fd5b505050507faeb483d056d2faf35ae92f43e7191573250763dcff602bea9c8f607cab860dd788888888888888886040516107229897969594939291906114d9565b60405180910390a15050505050505050565b3360009081527f7d7ffb7a348e1c6a02869081a26547b49160dd3df72d1d75a570eb9b698292ec602052604090205460ff1661079f5760405162461bcd60e51b815260206004820152600a60248201526941646d696e206f6e6c7960b01b6044820152606401610517565b61ffff909116600090815260026020526040902055565b6000828152602081905260409020600101546107d28133610a13565b6104988383610b2f565b3360009081527f7d7ffb7a348e1c6a02869081a26547b49160dd3df72d1d75a570eb9b698292ec602052604090205460ff166108475760405162461bcd60e51b815260206004820152600a60248201526941646d696e206f6e6c7960b01b6044820152606401610517565b8261085c6001600160a01b0382168484610c2d565b50505050565b600260015414156108b55760405162461bcd60e51b815260206004820152601f60248201527f5265656e7472616e637947756172643a207265656e7472616e742063616c6c006044820152606401610517565b60026001553360009081527f7d7ffb7a348e1c6a02869081a26547b49160dd3df72d1d75a570eb9b698292ec602052604090205460ff166109255760405162461bcd60e51b815260206004820152600a60248201526941646d696e206f6e6c7960b01b6044820152606401610517565b6000826001600160a01b03168260405160006040518083038185875af1925050503d8060008114610972576040519150601f19603f3d011682016040523d82523d6000602084013e610977565b606091505b50509050806109c85760405162461bcd60e51b815260206004820181905260248201527f4f7261636c65436c69656e743a206661696c656420746f2077697468647261776044820152606401610517565b604080516001600160a01b0385168152602081018490527f884edad9ce6fa2440d8a54cc123490eb96d2768479d49ff9c7366125a9424364910160405180910390a150506001805550565b6000828152602081815260408083206001600160a01b038516845290915290205460ff1661052a57610a4f816001600160a01b03166014610d49565b610a5a836020610d49565b604051602001610a6b929190611560565b60408051601f198184030181529082905262461bcd60e51b8252610517916004016115e1565b6000828152602081815260408083206001600160a01b038516845290915290205460ff1661052a576000828152602081815260408083206001600160a01b03851684529091529020805460ff19166001179055610aeb3390565b6001600160a01b0316816001600160a01b0316837f2f8788117e7eff1d82e926ec794901d17c78024a50270940304540a733656f0d60405160405180910390a45050565b6000828152602081815260408083206001600160a01b038516845290915290205460ff161561052a576000828152602081815260408083206001600160a01b0385168085529252808320805460ff1916905551339285917ff6391f5c32d9c69d2a47ea670b442974b53935d1edc7fd64eb21e047a839171b9190a45050565b6040516001600160a01b03831660248201526044810182905261049890849063a9059cbb60e01b906064015b60408051601f198184030181529190526020810180517bffffffffffffffffffffffffffffffffffffffffffffffffffffffff166001600160e01b031990931692909217909152610ef9565b6020015190565b801580610ca75750604051636eb1769f60e11b81523060048201526001600160a01b03838116602483015284169063dd62ed3e90604401602060405180830381865afa158015610c81573d6000803e3d6000fd5b505050506040513d601f19601f82011682018060405250810190610ca59190611614565b155b610d195760405162461bcd60e51b815260206004820152603660248201527f5361666545524332303a20617070726f76652066726f6d206e6f6e2d7a65726f60448201527f20746f206e6f6e2d7a65726f20616c6c6f77616e6365000000000000000000006064820152608401610517565b6040516001600160a01b03831660248201526044810182905261049890849063095ea7b360e01b90606401610bda565b60606000610d58836002611643565b610d63906002611662565b67ffffffffffffffff811115610d7b57610d7b61167a565b6040519080825280601f01601f191660200182016040528015610da5576020820181803683370190505b509050600360fc1b81600081518110610dc057610dc0611690565b60200101906001600160f81b031916908160001a905350600f60fb1b81600181518110610def57610def611690565b60200101906001600160f81b031916908160001a9053506000610e13846002611643565b610e1e906001611662565b90505b6001811115610ea3577f303132333435363738396162636465660000000000000000000000000000000085600f1660108110610e5f57610e5f611690565b1a60f81b828281518110610e7557610e75611690565b60200101906001600160f81b031916908160001a90535060049490941c93610e9c816116a6565b9050610e21565b508315610ef25760405162461bcd60e51b815260206004820181905260248201527f537472696e67733a20686578206c656e67746820696e73756666696369656e746044820152606401610517565b9392505050565b6000610f4e826040518060400160405280602081526020017f5361666545524332303a206c6f772d6c6576656c2063616c6c206661696c6564815250856001600160a01b0316610fde9092919063ffffffff16565b8051909150156104985780806020019051810190610f6c91906116bd565b6104985760405162461bcd60e51b815260206004820152602a60248201527f5361666545524332303a204552433230206f7065726174696f6e20646964206e60448201527f6f742073756363656564000000000000000000000000000000000000000000006064820152608401610517565b6060610fed8484600085610ff5565b949350505050565b60608247101561106d5760405162461bcd60e51b815260206004820152602660248201527f416464726573733a20696e73756666696369656e742062616c616e636520666f60448201527f722063616c6c00000000000000000000000000000000000000000000000000006064820152608401610517565b843b6110bb5760405162461bcd60e51b815260206004820152601d60248201527f416464726573733a2063616c6c20746f206e6f6e2d636f6e74726163740000006044820152606401610517565b600080866001600160a01b031685876040516110d791906116df565b60006040518083038185875af1925050503d8060008114611114576040519150601f19603f3d011682016040523d82523d6000602084013e611119565b606091505b5091509150611129828286611134565b979650505050505050565b60608315611143575081610ef2565b8251156111535782518084602001fd5b8160405162461bcd60e51b815260040161051791906115e1565b60006020828403121561117f57600080fd5b81356001600160e01b031981168114610ef257600080fd5b6000602082840312156111a957600080fd5b5035919050565b803561ffff811681146111c257600080fd5b919050565b60008083601f8401126111d957600080fd5b50813567ffffffffffffffff8111156111f157600080fd5b60208301915083602082850101111561120957600080fd5b9250929050565b6000806000806060858703121561122657600080fd5b61122f856111b0565b9350602085013567ffffffffffffffff81111561124b57600080fd5b611257878288016111c7565b9598909750949560400135949350505050565b6001600160a01b038116811461127f57600080fd5b50565b6000806040838503121561129557600080fd5b8235915060208301356112a78161126a565b809150509250929050565b6000806000606084860312156112c757600080fd5b83356112d28161126a565b925060208401356112e28161126a565b929592945050506040919091013590565b60006020828403121561130557600080fd5b8135610ef28161126a565b60008060008060008060008060a0898b03121561132c57600080fd5b883567ffffffffffffffff8082111561134457600080fd5b6113508c838d016111c7565b909a50985088915061136460208c016111b0565b975060408b013591508082111561137a57600080fd5b6113868c838d016111c7565b909750955060608b0135945060808b01359150808211156113a657600080fd5b506113b38b828c016111c7565b999c989b5096995094979396929594505050565b6000602082840312156113d957600080fd5b610ef2826111b0565b600080604083850312156113f557600080fd5b6113fe836111b0565b946020939093013593505050565b6000806040838503121561141f57600080fd5b82356113fe8161126a565b81835281816020850137506000828201602090810191909152601f909101601f19169091010190565b61ffff8616815260806020820152600061147160808301868861142a565b604083019490945250606001529392505050565b61ffff881681526001600160a01b038716602082015260a0604082015260006114b260a08301878961142a565b85606084015282810360808401526114cb81858761142a565b9a9950505050505050505050565b60a0815260006114ed60a083018a8c61142a565b61ffff89166020840152828103604084015261150a81888a61142a565b9050856060840152828103608084015261152581858761142a565b9b9a5050505050505050505050565b60005b8381101561154f578181015183820152602001611537565b8381111561085c5750506000910152565b7f416363657373436f6e74726f6c3a206163636f756e7420000000000000000000815260008351611598816017850160208801611534565b7f206973206d697373696e6720726f6c652000000000000000000000000000000060179184019182015283516115d5816028840160208801611534565b01602801949350505050565b6020815260008251806020840152611600816040850160208701611534565b601f01601f19169190910160400192915050565b60006020828403121561162657600080fd5b5051919050565b634e487b7160e01b600052601160045260246000fd5b600081600019048311821515161561165d5761165d61162d565b500290565b600082198211156116755761167561162d565b500190565b634e487b7160e01b600052604160045260246000fd5b634e487b7160e01b600052603260045260246000fd5b6000816116b5576116b561162d565b506000190190565b6000602082840312156116cf57600080fd5b81518015158114610ef257600080fd5b600082516116f1818460208701611534565b919091019291505056fea164736f6c634300080a000a",
    "linkReferences": {},
    "deployedLinkReferences": {}
}